{
  "_format": "hh-sol-artifact-1",
  "contractName": "OpenFire",
  "sourceName": "contracts/OpenFire.sol",
  "abi": [
    {
      "inputs": [],
      "stateMutability": "nonpayable",
      "type": "constructor"
    },
    {
      "inputs": [],
      "name": "AccessControlBadConfirmation",
      "type": "error"
    },
    {
      "inputs": [
        {
          "internalType": "address",
          "name": "account",
          "type": "address"
        },
        {
          "internalType": "bytes32",
          "name": "neededRole",
          "type": "bytes32"
        }
      ],
      "name": "AccessControlUnauthorizedAccount",
      "type": "error"
    },
    {
      "inputs": [],
      "name": "ERC721EnumerableForbiddenBatchMint",
      "type": "error"
    },
    {
      "inputs": [
        {
          "internalType": "address",
          "name": "sender",
          "type": "address"
        },
        {
          "internalType": "uint256",
          "name": "tokenId",
          "type": "uint256"
        },
        {
          "internalType": "address",
          "name": "owner",
          "type": "address"
        }
      ],
      "name": "ERC721IncorrectOwner",
      "type": "error"
    },
    {
      "inputs": [
        {
          "internalType": "address",
          "name": "operator",
          "type": "address"
        },
        {
          "internalType": "uint256",
          "name": "tokenId",
          "type": "uint256"
        }
      ],
      "name": "ERC721InsufficientApproval",
      "type": "error"
    },
    {
      "inputs": [
        {
          "internalType": "address",
          "name": "approver",
          "type": "address"
        }
      ],
      "name": "ERC721InvalidApprover",
      "type": "error"
    },
    {
      "inputs": [
        {
          "internalType": "address",
          "name": "operator",
          "type": "address"
        }
      ],
      "name": "ERC721InvalidOperator",
      "type": "error"
    },
    {
      "inputs": [
        {
          "internalType": "address",
          "name": "owner",
          "type": "address"
        }
      ],
      "name": "ERC721InvalidOwner",
      "type": "error"
    },
    {
      "inputs": [
        {
          "internalType": "address",
          "name": "receiver",
          "type": "address"
        }
      ],
      "name": "ERC721InvalidReceiver",
      "type": "error"
    },
    {
      "inputs": [
        {
          "internalType": "address",
          "name": "sender",
          "type": "address"
        }
      ],
      "name": "ERC721InvalidSender",
      "type": "error"
    },
    {
      "inputs": [
        {
          "internalType": "uint256",
          "name": "tokenId",
          "type": "uint256"
        }
      ],
      "name": "ERC721NonexistentToken",
      "type": "error"
    },
    {
      "inputs": [
        {
          "internalType": "address",
          "name": "owner",
          "type": "address"
        },
        {
          "internalType": "uint256",
          "name": "index",
          "type": "uint256"
        }
      ],
      "name": "ERC721OutOfBoundsIndex",
      "type": "error"
    },
    {
      "inputs": [
        {
          "internalType": "address",
          "name": "owner",
          "type": "address"
        }
      ],
      "name": "OwnableInvalidOwner",
      "type": "error"
    },
    {
      "inputs": [
        {
          "internalType": "address",
          "name": "account",
          "type": "address"
        }
      ],
      "name": "OwnableUnauthorizedAccount",
      "type": "error"
    },
    {
      "anonymous": false,
      "inputs": [
        {
          "indexed": true,
          "internalType": "address",
          "name": "owner",
          "type": "address"
        },
        {
          "indexed": true,
          "internalType": "address",
          "name": "approved",
          "type": "address"
        },
        {
          "indexed": true,
          "internalType": "uint256",
          "name": "tokenId",
          "type": "uint256"
        }
      ],
      "name": "Approval",
      "type": "event"
    },
    {
      "anonymous": false,
      "inputs": [
        {
          "indexed": true,
          "internalType": "address",
          "name": "owner",
          "type": "address"
        },
        {
          "indexed": true,
          "internalType": "address",
          "name": "operator",
          "type": "address"
        },
        {
          "indexed": false,
          "internalType": "bool",
          "name": "approved",
          "type": "bool"
        }
      ],
      "name": "ApprovalForAll",
      "type": "event"
    },
    {
      "anonymous": false,
      "inputs": [
        {
          "indexed": true,
          "internalType": "address",
          "name": "to",
          "type": "address"
        },
        {
          "indexed": true,
          "internalType": "uint256",
          "name": "tokenId",
          "type": "uint256"
        },
        {
          "indexed": false,
          "internalType": "uint256",
          "name": "fire_type",
          "type": "uint256"
        }
      ],
      "name": "Mint",
      "type": "event"
    },
    {
      "anonymous": false,
      "inputs": [
        {
          "indexed": true,
          "internalType": "address",
          "name": "previousOwner",
          "type": "address"
        },
        {
          "indexed": true,
          "internalType": "address",
          "name": "newOwner",
          "type": "address"
        }
      ],
      "name": "OwnershipTransferred",
      "type": "event"
    },
    {
      "anonymous": false,
      "inputs": [
        {
          "indexed": true,
          "internalType": "bytes32",
          "name": "role",
          "type": "bytes32"
        },
        {
          "indexed": true,
          "internalType": "bytes32",
          "name": "previousAdminRole",
          "type": "bytes32"
        },
        {
          "indexed": true,
          "internalType": "bytes32",
          "name": "newAdminRole",
          "type": "bytes32"
        }
      ],
      "name": "RoleAdminChanged",
      "type": "event"
    },
    {
      "anonymous": false,
      "inputs": [
        {
          "indexed": true,
          "internalType": "bytes32",
          "name": "role",
          "type": "bytes32"
        },
        {
          "indexed": true,
          "internalType": "address",
          "name": "account",
          "type": "address"
        },
        {
          "indexed": true,
          "internalType": "address",
          "name": "sender",
          "type": "address"
        }
      ],
      "name": "RoleGranted",
      "type": "event"
    },
    {
      "anonymous": false,
      "inputs": [
        {
          "indexed": true,
          "internalType": "bytes32",
          "name": "role",
          "type": "bytes32"
        },
        {
          "indexed": true,
          "internalType": "address",
          "name": "account",
          "type": "address"
        },
        {
          "indexed": true,
          "internalType": "address",
          "name": "sender",
          "type": "address"
        }
      ],
      "name": "RoleRevoked",
      "type": "event"
    },
    {
      "anonymous": false,
      "inputs": [
        {
          "indexed": true,
          "internalType": "address",
          "name": "from",
          "type": "address"
        },
        {
          "indexed": true,
          "internalType": "address",
          "name": "to",
          "type": "address"
        },
        {
          "indexed": true,
          "internalType": "uint256",
          "name": "tokenId",
          "type": "uint256"
        }
      ],
      "name": "Transfer",
      "type": "event"
    },
    {
      "inputs": [],
      "name": "DEFAULT_ADMIN_ROLE",
      "outputs": [
        {
          "internalType": "bytes32",
          "name": "",
          "type": "bytes32"
        }
      ],
      "stateMutability": "view",
      "type": "function"
    },
    {
      "inputs": [],
      "name": "MINTER_ROLE",
      "outputs": [
        {
          "internalType": "bytes32",
          "name": "",
          "type": "bytes32"
        }
      ],
      "stateMutability": "view",
      "type": "function"
    },
    {
      "inputs": [
        {
          "internalType": "address",
          "name": "to",
          "type": "address"
        },
        {
          "internalType": "uint256",
          "name": "tokenId",
          "type": "uint256"
        }
      ],
      "name": "approve",
      "outputs": [],
      "stateMutability": "nonpayable",
      "type": "function"
    },
    {
      "inputs": [
        {
          "internalType": "address",
          "name": "owner",
          "type": "address"
        }
      ],
      "name": "balanceOf",
      "outputs": [
        {
          "internalType": "uint256",
          "name": "",
          "type": "uint256"
        }
      ],
      "stateMutability": "view",
      "type": "function"
    },
    {
      "inputs": [
        {
          "internalType": "uint256",
          "name": "tokenId",
          "type": "uint256"
        }
      ],
      "name": "getApproved",
      "outputs": [
        {
          "internalType": "address",
          "name": "",
          "type": "address"
        }
      ],
      "stateMutability": "view",
      "type": "function"
    },
    {
      "inputs": [
        {
          "internalType": "bytes32",
          "name": "role",
          "type": "bytes32"
        }
      ],
      "name": "getRoleAdmin",
      "outputs": [
        {
          "internalType": "bytes32",
          "name": "",
          "type": "bytes32"
        }
      ],
      "stateMutability": "view",
      "type": "function"
    },
    {
      "inputs": [
        {
          "internalType": "bytes32",
          "name": "role",
          "type": "bytes32"
        },
        {
          "internalType": "uint256",
          "name": "index",
          "type": "uint256"
        }
      ],
      "name": "getRoleMember",
      "outputs": [
        {
          "internalType": "address",
          "name": "",
          "type": "address"
        }
      ],
      "stateMutability": "view",
      "type": "function"
    },
    {
      "inputs": [
        {
          "internalType": "bytes32",
          "name": "role",
          "type": "bytes32"
        }
      ],
      "name": "getRoleMemberCount",
      "outputs": [
        {
          "internalType": "uint256",
          "name": "",
          "type": "uint256"
        }
      ],
      "stateMutability": "view",
      "type": "function"
    },
    {
      "inputs": [
        {
          "internalType": "bytes32",
          "name": "role",
          "type": "bytes32"
        },
        {
          "internalType": "address",
          "name": "account",
          "type": "address"
        }
      ],
      "name": "grantRole",
      "outputs": [],
      "stateMutability": "nonpayable",
      "type": "function"
    },
    {
      "inputs": [
        {
          "internalType": "bytes32",
          "name": "role",
          "type": "bytes32"
        },
        {
          "internalType": "address",
          "name": "account",
          "type": "address"
        }
      ],
      "name": "hasRole",
      "outputs": [
        {
          "internalType": "bool",
          "name": "",
          "type": "bool"
        }
      ],
      "stateMutability": "view",
      "type": "function"
    },
    {
      "inputs": [
        {
          "internalType": "address",
          "name": "owner",
          "type": "address"
        },
        {
          "internalType": "address",
          "name": "operator",
          "type": "address"
        }
      ],
      "name": "isApprovedForAll",
      "outputs": [
        {
          "internalType": "bool",
          "name": "",
          "type": "bool"
        }
      ],
      "stateMutability": "view",
      "type": "function"
    },
    {
      "inputs": [
        {
          "internalType": "address",
          "name": "owner",
          "type": "address"
        }
      ],
      "name": "listTokenIds",
      "outputs": [
        {
          "internalType": "uint256[]",
          "name": "tokenIds",
          "type": "uint256[]"
        }
      ],
      "stateMutability": "view",
      "type": "function"
    },
    {
      "inputs": [
        {
          "internalType": "address",
          "name": "to",
          "type": "address"
        },
        {
          "internalType": "uint256",
          "name": "fire_type",
          "type": "uint256"
        }
      ],
      "name": "mint",
      "outputs": [
        {
          "internalType": "uint256",
          "name": "",
          "type": "uint256"
        }
      ],
      "stateMutability": "nonpayable",
      "type": "function"
    },
    {
      "inputs": [],
      "name": "name",
      "outputs": [
        {
          "internalType": "string",
          "name": "",
          "type": "string"
        }
      ],
      "stateMutability": "view",
      "type": "function"
    },
    {
      "inputs": [],
      "name": "owner",
      "outputs": [
        {
          "internalType": "address",
          "name": "",
          "type": "address"
        }
      ],
      "stateMutability": "view",
      "type": "function"
    },
    {
      "inputs": [
        {
          "internalType": "uint256",
          "name": "tokenId",
          "type": "uint256"
        }
      ],
      "name": "ownerOf",
      "outputs": [
        {
          "internalType": "address",
          "name": "",
          "type": "address"
        }
      ],
      "stateMutability": "view",
      "type": "function"
    },
    {
      "inputs": [],
      "name": "renounceOwnership",
      "outputs": [],
      "stateMutability": "nonpayable",
      "type": "function"
    },
    {
      "inputs": [
        {
          "internalType": "bytes32",
          "name": "role",
          "type": "bytes32"
        },
        {
          "internalType": "address",
          "name": "callerConfirmation",
          "type": "address"
        }
      ],
      "name": "renounceRole",
      "outputs": [],
      "stateMutability": "nonpayable",
      "type": "function"
    },
    {
      "inputs": [
        {
          "internalType": "bytes32",
          "name": "role",
          "type": "bytes32"
        },
        {
          "internalType": "address",
          "name": "account",
          "type": "address"
        }
      ],
      "name": "revokeRole",
      "outputs": [],
      "stateMutability": "nonpayable",
      "type": "function"
    },
    {
      "inputs": [
        {
          "internalType": "address",
          "name": "from",
          "type": "address"
        },
        {
          "internalType": "address",
          "name": "to",
          "type": "address"
        },
        {
          "internalType": "uint256",
          "name": "tokenId",
          "type": "uint256"
        }
      ],
      "name": "safeTransferFrom",
      "outputs": [],
      "stateMutability": "nonpayable",
      "type": "function"
    },
    {
      "inputs": [
        {
          "internalType": "address",
          "name": "from",
          "type": "address"
        },
        {
          "internalType": "address",
          "name": "to",
          "type": "address"
        },
        {
          "internalType": "uint256",
          "name": "tokenId",
          "type": "uint256"
        },
        {
          "internalType": "bytes",
          "name": "data",
          "type": "bytes"
        }
      ],
      "name": "safeTransferFrom",
      "outputs": [],
      "stateMutability": "nonpayable",
      "type": "function"
    },
    {
      "inputs": [
        {
          "internalType": "address",
          "name": "operator",
          "type": "address"
        },
        {
          "internalType": "bool",
          "name": "approved",
          "type": "bool"
        }
      ],
      "name": "setApprovalForAll",
      "outputs": [],
      "stateMutability": "nonpayable",
      "type": "function"
    },
    {
      "inputs": [
        {
          "internalType": "string",
          "name": "_newUrl",
          "type": "string"
        }
      ],
      "name": "setBaseUrl",
      "outputs": [],
      "stateMutability": "nonpayable",
      "type": "function"
    },
    {
      "inputs": [
        {
          "internalType": "bytes4",
          "name": "interfaceId",
          "type": "bytes4"
        }
      ],
      "name": "supportsInterface",
      "outputs": [
        {
          "internalType": "bool",
          "name": "",
          "type": "bool"
        }
      ],
      "stateMutability": "view",
      "type": "function"
    },
    {
      "inputs": [],
      "name": "symbol",
      "outputs": [
        {
          "internalType": "string",
          "name": "",
          "type": "string"
        }
      ],
      "stateMutability": "view",
      "type": "function"
    },
    {
      "inputs": [
        {
          "internalType": "uint256",
          "name": "index",
          "type": "uint256"
        }
      ],
      "name": "tokenByIndex",
      "outputs": [
        {
          "internalType": "uint256",
          "name": "",
          "type": "uint256"
        }
      ],
      "stateMutability": "view",
      "type": "function"
    },
    {
      "inputs": [
        {
          "internalType": "address",
          "name": "owner",
          "type": "address"
        },
        {
          "internalType": "uint256",
          "name": "index",
          "type": "uint256"
        }
      ],
      "name": "tokenOfOwnerByIndex",
      "outputs": [
        {
          "internalType": "uint256",
          "name": "",
          "type": "uint256"
        }
      ],
      "stateMutability": "view",
      "type": "function"
    },
    {
      "inputs": [
        {
          "internalType": "uint256",
          "name": "tokenId",
          "type": "uint256"
        }
      ],
      "name": "tokenURI",
      "outputs": [
        {
          "internalType": "string",
          "name": "",
          "type": "string"
        }
      ],
      "stateMutability": "view",
      "type": "function"
    },
    {
      "inputs": [],
      "name": "totalSupply",
      "outputs": [
        {
          "internalType": "uint256",
          "name": "",
          "type": "uint256"
        }
      ],
      "stateMutability": "view",
      "type": "function"
    },
    {
      "inputs": [
        {
          "internalType": "address",
          "name": "from",
          "type": "address"
        },
        {
          "internalType": "address",
          "name": "to",
          "type": "address"
        },
        {
          "internalType": "uint256",
          "name": "tokenId",
          "type": "uint256"
        }
      ],
      "name": "transferFrom",
      "outputs": [],
      "stateMutability": "nonpayable",
      "type": "function"
    },
    {
      "inputs": [
        {
          "internalType": "address",
          "name": "newOwner",
          "type": "address"
        }
      ],
      "name": "transferOwnership",
      "outputs": [],
      "stateMutability": "nonpayable",
      "type": "function"
    }
  ],
  "bytecode": "0x60806040523480156200001157600080fd5b50336040518060400160405280600981526020017f4f70656e204669726500000000000000000000000000000000000000000000008152506040518060400160405280600481526020017f4669726500000000000000000000000000000000000000000000000000000000815250816000908162000090919062000734565b508060019081620000a2919062000734565b505050600073ffffffffffffffffffffffffffffffffffffffff168173ffffffffffffffffffffffffffffffffffffffff16036200011a5760006040517f1e4fbdf700000000000000000000000000000000000000000000000000000000815260040162000111919062000860565b60405180910390fd5b6200012b816200015760201b60201c565b50620001506000801b620001446200021d60201b60201c565b6200022560201b60201c565b506200087d565b6000600a60009054906101000a900473ffffffffffffffffffffffffffffffffffffffff16905081600a60006101000a81548173ffffffffffffffffffffffffffffffffffffffff021916908373ffffffffffffffffffffffffffffffffffffffff1602179055508173ffffffffffffffffffffffffffffffffffffffff168173ffffffffffffffffffffffffffffffffffffffff167f8be0079c531659141344cd1fd0a4f28419497f9722a3daafe3b4186f6b6457e060405160405180910390a35050565b600033905090565b6000806200023a84846200027660201b60201c565b905080156200026c576200026a83600c60008781526020019081526020016000206200037a60201b90919060201c565b505b8091505092915050565b60006200028a8383620003b260201b60201c565b6200036f576001600b600085815260200190815260200160002060000160008473ffffffffffffffffffffffffffffffffffffffff1673ffffffffffffffffffffffffffffffffffffffff16815260200190815260200160002060006101000a81548160ff0219169083151502179055506200030b6200021d60201b60201c565b73ffffffffffffffffffffffffffffffffffffffff168273ffffffffffffffffffffffffffffffffffffffff16847f2f8788117e7eff1d82e926ec794901d17c78024a50270940304540a733656f0d60405160405180910390a46001905062000374565b600090505b92915050565b6000620003aa836000018373ffffffffffffffffffffffffffffffffffffffff1660001b6200041d60201b60201c565b905092915050565b6000600b600084815260200190815260200160002060000160008373ffffffffffffffffffffffffffffffffffffffff1673ffffffffffffffffffffffffffffffffffffffff16815260200190815260200160002060009054906101000a900460ff16905092915050565b60006200043183836200049760201b60201c565b6200048c57826000018290806001815401808255809150506001900390600052602060002001600090919091909150558260000180549050836001016000848152602001908152602001600020819055506001905062000491565b600090505b92915050565b600080836001016000848152602001908152602001600020541415905092915050565b600081519050919050565b7f4e487b7100000000000000000000000000000000000000000000000000000000600052604160045260246000fd5b7f4e487b7100000000000000000000000000000000000000000000000000000000600052602260045260246000fd5b600060028204905060018216806200053c57607f821691505b602082108103620005525762000551620004f4565b5b50919050565b60008190508160005260206000209050919050565b60006020601f8301049050919050565b600082821b905092915050565b600060088302620005bc7fffffffffffffffffffffffffffffffffffffffffffffffffffffffffffffffff826200057d565b620005c886836200057d565b95508019841693508086168417925050509392505050565b6000819050919050565b6000819050919050565b6000620006156200060f6200060984620005e0565b620005ea565b620005e0565b9050919050565b6000819050919050565b6200063183620005f4565b6200064962000640826200061c565b8484546200058a565b825550505050565b600090565b6200066062000651565b6200066d81848462000626565b505050565b5b8181101562000695576200068960008262000656565b60018101905062000673565b5050565b601f821115620006e457620006ae8162000558565b620006b9846200056d565b81016020851015620006c9578190505b620006e1620006d8856200056d565b83018262000672565b50505b505050565b600082821c905092915050565b60006200070960001984600802620006e9565b1980831691505092915050565b6000620007248383620006f6565b9150826002028217905092915050565b6200073f82620004ba565b67ffffffffffffffff8111156200075b576200075a620004c5565b5b62000767825462000523565b6200077482828562000699565b600060209050601f831160018114620007ac576000841562000797578287015190505b620007a3858262000716565b86555062000813565b601f198416620007bc8662000558565b60005b82811015620007e657848901518255600182019150602085019450602081019050620007bf565b8683101562000806578489015162000802601f891682620006f6565b8355505b6001600288020188555050505b505050505050565b600073ffffffffffffffffffffffffffffffffffffffff82169050919050565b600062000848826200081b565b9050919050565b6200085a816200083b565b82525050565b60006020820190506200087760008301846200084f565b92915050565b613a60806200088d6000396000f3fe608060405234801561001057600080fd5b50600436106101e55760003560e01c8063715018a61161010f578063c7c3268b116100a2578063d547741f11610071578063d547741f146105c8578063e2a4fad3146105e4578063e985e9c514610614578063f2fde38b14610644576101e5565b8063c7c3268b1461052e578063c87b56dd1461054a578063ca15c8731461057a578063d5391393146105aa576101e5565b806395d89b41116100de57806395d89b41146104ba578063a217fddf146104d8578063a22cb465146104f6578063b88d4fde14610512576101e5565b8063715018a6146104325780638da5cb5b1461043c5780639010d07c1461045a57806391d148541461048a576101e5565b80632f2ff15d1161018757806342842e0e1161015657806342842e0e146103865780634f6ccce7146103a25780636352211e146103d257806370a0823114610402576101e5565b80632f2ff15d146102ee5780632f745c591461030a57806336568abe1461033a57806340c10f1914610356576101e5565b8063095ea7b3116101c3578063095ea7b31461026857806318160ddd1461028457806323b872dd146102a2578063248a9ca3146102be576101e5565b806301ffc9a7146101ea57806306fdde031461021a578063081812fc14610238575b600080fd5b61020460048036038101906101ff9190612bcb565b610660565b6040516102119190612c13565b60405180910390f35b610222610672565b60405161022f9190612cbe565b60405180910390f35b610252600480360381019061024d9190612d16565b610704565b60405161025f9190612d84565b60405180910390f35b610282600480360381019061027d9190612dcb565b610720565b005b61028c610736565b6040516102999190612e1a565b60405180910390f35b6102bc60048036038101906102b79190612e35565b610743565b005b6102d860048036038101906102d39190612ebe565b610845565b6040516102e59190612efa565b60405180910390f35b61030860048036038101906103039190612f15565b610865565b005b610324600480360381019061031f9190612dcb565b610887565b6040516103319190612e1a565b60405180910390f35b610354600480360381019061034f9190612f15565b610930565b005b610370600480360381019061036b9190612dcb565b6109ab565b60405161037d9190612e1a565b60405180910390f35b6103a0600480360381019061039b9190612e35565b610ae5565b005b6103bc60048036038101906103b79190612d16565b610b05565b6040516103c99190612e1a565b60405180910390f35b6103ec60048036038101906103e79190612d16565b610b7b565b6040516103f99190612d84565b60405180910390f35b61041c60048036038101906104179190612f55565b610b8d565b6040516104299190612e1a565b60405180910390f35b61043a610c47565b005b610444610c5b565b6040516104519190612d84565b60405180910390f35b610474600480360381019061046f9190612f82565b610c85565b6040516104819190612d84565b60405180910390f35b6104a4600480360381019061049f9190612f15565b610cb4565b6040516104b19190612c13565b60405180910390f35b6104c2610d1f565b6040516104cf9190612cbe565b60405180910390f35b6104e0610db1565b6040516104ed9190612efa565b60405180910390f35b610510600480360381019061050b9190612fee565b610db8565b005b61052c60048036038101906105279190613163565b610dce565b005b61054860048036038101906105439190613287565b610deb565b005b610564600480360381019061055f9190612d16565b610e06565b6040516105719190612cbe565b60405180910390f35b610594600480360381019061058f9190612ebe565b610e6f565b6040516105a19190612e1a565b60405180910390f35b6105b2610e93565b6040516105bf9190612efa565b60405180910390f35b6105e260048036038101906105dd9190612f15565b610eb7565b005b6105fe60048036038101906105f99190612f55565b610ed9565b60405161060b919061338e565b60405180910390f35b61062e600480360381019061062991906133b0565b610f81565b60405161063b9190612c13565b60405180910390f35b61065e60048036038101906106599190612f55565b611015565b005b600061066b8261109b565b9050919050565b6060600080546106819061341f565b80601f01602080910402602001604051908101604052809291908181526020018280546106ad9061341f565b80156106fa5780601f106106cf576101008083540402835291602001916106fa565b820191906000526020600020905b8154815290600101906020018083116106dd57829003601f168201915b5050505050905090565b600061070f82611115565b506107198261119d565b9050919050565b610732828261072d6111da565b6111e2565b5050565b6000600880549050905090565b600073ffffffffffffffffffffffffffffffffffffffff168273ffffffffffffffffffffffffffffffffffffffff16036107b55760006040517f64a0ae920000000000000000000000000000000000000000000000000000000081526004016107ac9190612d84565b60405180910390fd5b60006107c983836107c46111da565b6111f4565b90508373ffffffffffffffffffffffffffffffffffffffff168173ffffffffffffffffffffffffffffffffffffffff161461083f578382826040517f64283d7b00000000000000000000000000000000000000000000000000000000815260040161083693929190613450565b60405180910390fd5b50505050565b6000600b6000838152602001908152602001600020600101549050919050565b61086e82610845565b61087781611311565b6108818383611325565b50505050565b600061089283610b8d565b82106108d75782826040517fa57d13dc0000000000000000000000000000000000000000000000000000000081526004016108ce929190613487565b60405180910390fd5b600660008473ffffffffffffffffffffffffffffffffffffffff1673ffffffffffffffffffffffffffffffffffffffff168152602001908152602001600020600083815260200190815260200160002054905092915050565b6109386111da565b73ffffffffffffffffffffffffffffffffffffffff168173ffffffffffffffffffffffffffffffffffffffff161461099c576040517f6697b23200000000000000000000000000000000000000000000000000000000815260040160405180910390fd5b6109a6828261136b565b505050565b60006109b56111da565b73ffffffffffffffffffffffffffffffffffffffff166109d3610c5b565b73ffffffffffffffffffffffffffffffffffffffff161480610a225750610a217f9f2df0fed2c77648de5860a4cc508cd0818c85b8b8a1ab4ceeef8d981c8956a6610a1c6111da565b610cb4565b5b610a61576040517f08c379a0000000000000000000000000000000000000000000000000000000008152600401610a58906134fc565b60405180910390fd5b6000600d549050610a7284826113b1565b6001600d6000828254610a85919061354b565b92505081905550828473ffffffffffffffffffffffffffffffffffffffff167f4c209b5fc8ad50758f13e2e1088ba56a560dff690a1c6fef26394f4c03821c4f83604051610ad39190612e1a565b60405180910390a38091505092915050565b610b0083838360405180602001604052806000815250610dce565b505050565b6000610b0f610736565b8210610b55576000826040517fa57d13dc000000000000000000000000000000000000000000000000000000008152600401610b4c929190613487565b60405180910390fd5b60088281548110610b6957610b6861357f565b5b90600052602060002001549050919050565b6000610b8682611115565b9050919050565b60008073ffffffffffffffffffffffffffffffffffffffff168273ffffffffffffffffffffffffffffffffffffffff1603610c005760006040517f89c62b64000000000000000000000000000000000000000000000000000000008152600401610bf79190612d84565b60405180910390fd5b600360008373ffffffffffffffffffffffffffffffffffffffff1673ffffffffffffffffffffffffffffffffffffffff168152602001908152602001600020549050919050565b610c4f6114aa565b610c596000611531565b565b6000600a60009054906101000a900473ffffffffffffffffffffffffffffffffffffffff16905090565b6000610cac82600c60008681526020019081526020016000206115f790919063ffffffff16565b905092915050565b6000600b600084815260200190815260200160002060000160008373ffffffffffffffffffffffffffffffffffffffff1673ffffffffffffffffffffffffffffffffffffffff16815260200190815260200160002060009054906101000a900460ff16905092915050565b606060018054610d2e9061341f565b80601f0160208091040260200160405190810160405280929190818152602001828054610d5a9061341f565b8015610da75780601f10610d7c57610100808354040283529160200191610da7565b820191906000526020600020905b815481529060010190602001808311610d8a57829003601f168201915b5050505050905090565b6000801b81565b610dca610dc36111da565b8383611611565b5050565b610dd9848484610743565b610de584848484611780565b50505050565b610df36114aa565b80600e9081610e02919061375a565b5050565b6060610e1182611115565b506000610e1c611937565b90506000815111610e3c5760405180602001604052806000815250610e67565b80610e46846119c9565b604051602001610e57929190613868565b6040516020818303038152906040525b915050919050565b6000610e8c600c6000848152602001908152602001600020611a97565b9050919050565b7f9f2df0fed2c77648de5860a4cc508cd0818c85b8b8a1ab4ceeef8d981c8956a681565b610ec082610845565b610ec981611311565b610ed3838361136b565b50505050565b60606000610ee683610b8d565b905060008167ffffffffffffffff811115610f0457610f03613038565b5b604051908082528060200260200182016040528015610f325781602001602082028036833780820191505090505b50905060005b82811015610f7657610f4a8582610887565b828281518110610f5d57610f5c61357f565b5b6020026020010181815250508080600101915050610f38565b508092505050919050565b6000600560008473ffffffffffffffffffffffffffffffffffffffff1673ffffffffffffffffffffffffffffffffffffffff16815260200190815260200160002060008373ffffffffffffffffffffffffffffffffffffffff1673ffffffffffffffffffffffffffffffffffffffff16815260200190815260200160002060009054906101000a900460ff16905092915050565b61101d6114aa565b600073ffffffffffffffffffffffffffffffffffffffff168173ffffffffffffffffffffffffffffffffffffffff160361108f5760006040517f1e4fbdf70000000000000000000000000000000000000000000000000000000081526004016110869190612d84565b60405180910390fd5b61109881611531565b50565b60007f5a05180f000000000000000000000000000000000000000000000000000000007bffffffffffffffffffffffffffffffffffffffffffffffffffffffff1916827bffffffffffffffffffffffffffffffffffffffffffffffffffffffff1916148061110e575061110d82611aac565b5b9050919050565b60008061112183611b26565b9050600073ffffffffffffffffffffffffffffffffffffffff168173ffffffffffffffffffffffffffffffffffffffff160361119457826040517f7e27328900000000000000000000000000000000000000000000000000000000815260040161118b9190612e1a565b60405180910390fd5b80915050919050565b60006004600083815260200190815260200160002060009054906101000a900473ffffffffffffffffffffffffffffffffffffffff169050919050565b600033905090565b6111ef8383836001611b63565b505050565b600080611202858585611d28565b9050600073ffffffffffffffffffffffffffffffffffffffff168173ffffffffffffffffffffffffffffffffffffffff16036112465761124184611f42565b611285565b8473ffffffffffffffffffffffffffffffffffffffff168173ffffffffffffffffffffffffffffffffffffffff1614611284576112838185611f8b565b5b5b600073ffffffffffffffffffffffffffffffffffffffff168573ffffffffffffffffffffffffffffffffffffffff16036112c7576112c2846120ec565b611306565b8473ffffffffffffffffffffffffffffffffffffffff168173ffffffffffffffffffffffffffffffffffffffff16146113055761130485856121bd565b5b5b809150509392505050565b6113228161131d6111da565b612248565b50565b6000806113328484612299565b905080156113615761135f83600c600087815260200190815260200160002061238b90919063ffffffff16565b505b8091505092915050565b60008061137884846123bb565b905080156113a7576113a583600c60008781526020019081526020016000206124ae90919063ffffffff16565b505b8091505092915050565b600073ffffffffffffffffffffffffffffffffffffffff168273ffffffffffffffffffffffffffffffffffffffff16036114235760006040517f64a0ae9200000000000000000000000000000000000000000000000000000000815260040161141a9190612d84565b60405180910390fd5b6000611431838360006111f4565b9050600073ffffffffffffffffffffffffffffffffffffffff168173ffffffffffffffffffffffffffffffffffffffff16146114a55760006040517f73c6ac6e00000000000000000000000000000000000000000000000000000000815260040161149c9190612d84565b60405180910390fd5b505050565b6114b26111da565b73ffffffffffffffffffffffffffffffffffffffff166114d0610c5b565b73ffffffffffffffffffffffffffffffffffffffff161461152f576114f36111da565b6040517f118cdaa70000000000000000000000000000000000000000000000000000000081526004016115269190612d84565b60405180910390fd5b565b6000600a60009054906101000a900473ffffffffffffffffffffffffffffffffffffffff16905081600a60006101000a81548173ffffffffffffffffffffffffffffffffffffffff021916908373ffffffffffffffffffffffffffffffffffffffff1602179055508173ffffffffffffffffffffffffffffffffffffffff168173ffffffffffffffffffffffffffffffffffffffff167f8be0079c531659141344cd1fd0a4f28419497f9722a3daafe3b4186f6b6457e060405160405180910390a35050565b600061160683600001836124de565b60001c905092915050565b600073ffffffffffffffffffffffffffffffffffffffff168273ffffffffffffffffffffffffffffffffffffffff160361168257816040517f5b08ba180000000000000000000000000000000000000000000000000000000081526004016116799190612d84565b60405180910390fd5b80600560008573ffffffffffffffffffffffffffffffffffffffff1673ffffffffffffffffffffffffffffffffffffffff16815260200190815260200160002060008473ffffffffffffffffffffffffffffffffffffffff1673ffffffffffffffffffffffffffffffffffffffff16815260200190815260200160002060006101000a81548160ff0219169083151502179055508173ffffffffffffffffffffffffffffffffffffffff168373ffffffffffffffffffffffffffffffffffffffff167f17307eab39ab6107e8899845ad3d59bd9653f200f220920489ca2b5937696c31836040516117739190612c13565b60405180910390a3505050565b60008373ffffffffffffffffffffffffffffffffffffffff163b1115611931578273ffffffffffffffffffffffffffffffffffffffff1663150b7a026117c46111da565b8685856040518563ffffffff1660e01b81526004016117e694939291906138e1565b6020604051808303816000875af192505050801561182257506040513d601f19601f8201168201806040525081019061181f9190613942565b60015b6118a6573d8060008114611852576040519150601f19603f3d011682016040523d82523d6000602084013e611857565b606091505b50600081510361189e57836040517f64a0ae920000000000000000000000000000000000000000000000000000000081526004016118959190612d84565b60405180910390fd5b805181602001fd5b63150b7a0260e01b7bffffffffffffffffffffffffffffffffffffffffffffffffffffffff1916817bffffffffffffffffffffffffffffffffffffffffffffffffffffffff19161461192f57836040517f64a0ae920000000000000000000000000000000000000000000000000000000081526004016119269190612d84565b60405180910390fd5b505b50505050565b6060600e80546119469061341f565b80601f01602080910402602001604051908101604052809291908181526020018280546119729061341f565b80156119bf5780601f10611994576101008083540402835291602001916119bf565b820191906000526020600020905b8154815290600101906020018083116119a257829003601f168201915b5050505050905090565b6060600060016119d884612509565b01905060008167ffffffffffffffff8111156119f7576119f6613038565b5b6040519080825280601f01601f191660200182016040528015611a295781602001600182028036833780820191505090505b509050600082602001820190505b600115611a8c578080600190039150507f3031323334353637383961626364656600000000000000000000000000000000600a86061a8153600a8581611a8057611a7f61396f565b5b04945060008503611a37575b819350505050919050565b6000611aa58260000161265c565b9050919050565b60007f7965db0b000000000000000000000000000000000000000000000000000000007bffffffffffffffffffffffffffffffffffffffffffffffffffffffff1916827bffffffffffffffffffffffffffffffffffffffffffffffffffffffff19161480611b1f5750611b1e8261266d565b5b9050919050565b60006002600083815260200190815260200160002060009054906101000a900473ffffffffffffffffffffffffffffffffffffffff169050919050565b8080611b9c5750600073ffffffffffffffffffffffffffffffffffffffff168273ffffffffffffffffffffffffffffffffffffffff1614155b15611cd0576000611bac84611115565b9050600073ffffffffffffffffffffffffffffffffffffffff168373ffffffffffffffffffffffffffffffffffffffff1614158015611c1757508273ffffffffffffffffffffffffffffffffffffffff168173ffffffffffffffffffffffffffffffffffffffff1614155b8015611c2a5750611c288184610f81565b155b15611c6c57826040517fa9fbf51f000000000000000000000000000000000000000000000000000000008152600401611c639190612d84565b60405180910390fd5b8115611cce57838573ffffffffffffffffffffffffffffffffffffffff168273ffffffffffffffffffffffffffffffffffffffff167f8c5be1e5ebec7d5bd14f71427d1e84f3dd0314c0f7b2291e5b200ac8c7c3b92560405160405180910390a45b505b836004600085815260200190815260200160002060006101000a81548173ffffffffffffffffffffffffffffffffffffffff021916908373ffffffffffffffffffffffffffffffffffffffff16021790555050505050565b600080611d3484611b26565b9050600073ffffffffffffffffffffffffffffffffffffffff168373ffffffffffffffffffffffffffffffffffffffff1614611d7657611d758184866126e7565b5b600073ffffffffffffffffffffffffffffffffffffffff168173ffffffffffffffffffffffffffffffffffffffff1614611e0757611db8600085600080611b63565b6001600360008373ffffffffffffffffffffffffffffffffffffffff1673ffffffffffffffffffffffffffffffffffffffff168152602001908152602001600020600082825403925050819055505b600073ffffffffffffffffffffffffffffffffffffffff168573ffffffffffffffffffffffffffffffffffffffff1614611e8a576001600360008773ffffffffffffffffffffffffffffffffffffffff1673ffffffffffffffffffffffffffffffffffffffff168152602001908152602001600020600082825401925050819055505b846002600086815260200190815260200160002060006101000a81548173ffffffffffffffffffffffffffffffffffffffff021916908373ffffffffffffffffffffffffffffffffffffffff160217905550838573ffffffffffffffffffffffffffffffffffffffff168273ffffffffffffffffffffffffffffffffffffffff167fddf252ad1be2c89b69c2b068fc378daa952ba7f163c4a11628f55a4df523b3ef60405160405180910390a4809150509392505050565b6008805490506009600083815260200190815260200160002081905550600881908060018154018082558091505060019003906000526020600020016000909190919091505550565b6000611f9683610b8d565b905060006007600084815260200190815260200160002054905081811461207b576000600660008673ffffffffffffffffffffffffffffffffffffffff1673ffffffffffffffffffffffffffffffffffffffff168152602001908152602001600020600084815260200190815260200160002054905080600660008773ffffffffffffffffffffffffffffffffffffffff1673ffffffffffffffffffffffffffffffffffffffff168152602001908152602001600020600084815260200190815260200160002081905550816007600083815260200190815260200160002081905550505b6007600084815260200190815260200160002060009055600660008573ffffffffffffffffffffffffffffffffffffffff1673ffffffffffffffffffffffffffffffffffffffff16815260200190815260200160002060008381526020019081526020016000206000905550505050565b60006001600880549050612100919061399e565b90506000600960008481526020019081526020016000205490506000600883815481106121305761212f61357f565b5b9060005260206000200154905080600883815481106121525761215161357f565b5b9060005260206000200181905550816009600083815260200190815260200160002081905550600960008581526020019081526020016000206000905560088054806121a1576121a06139d2565b5b6001900381819060005260206000200160009055905550505050565b600060016121ca84610b8d565b6121d4919061399e565b905081600660008573ffffffffffffffffffffffffffffffffffffffff1673ffffffffffffffffffffffffffffffffffffffff168152602001908152602001600020600083815260200190815260200160002081905550806007600084815260200190815260200160002081905550505050565b6122528282610cb4565b6122955780826040517fe2517d3f00000000000000000000000000000000000000000000000000000000815260040161228c929190613a01565b60405180910390fd5b5050565b60006122a58383610cb4565b612380576001600b600085815260200190815260200160002060000160008473ffffffffffffffffffffffffffffffffffffffff1673ffffffffffffffffffffffffffffffffffffffff16815260200190815260200160002060006101000a81548160ff02191690831515021790555061231d6111da565b73ffffffffffffffffffffffffffffffffffffffff168273ffffffffffffffffffffffffffffffffffffffff16847f2f8788117e7eff1d82e926ec794901d17c78024a50270940304540a733656f0d60405160405180910390a460019050612385565b600090505b92915050565b60006123b3836000018373ffffffffffffffffffffffffffffffffffffffff1660001b6127ab565b905092915050565b60006123c78383610cb4565b156124a3576000600b600085815260200190815260200160002060000160008473ffffffffffffffffffffffffffffffffffffffff1673ffffffffffffffffffffffffffffffffffffffff16815260200190815260200160002060006101000a81548160ff0219169083151502179055506124406111da565b73ffffffffffffffffffffffffffffffffffffffff168273ffffffffffffffffffffffffffffffffffffffff16847ff6391f5c32d9c69d2a47ea670b442974b53935d1edc7fd64eb21e047a839171b60405160405180910390a4600190506124a8565b600090505b92915050565b60006124d6836000018373ffffffffffffffffffffffffffffffffffffffff1660001b61281b565b905092915050565b60008260000182815481106124f6576124f561357f565b5b9060005260206000200154905092915050565b600080600090507a184f03e93ff9f4daa797ed6e38ed64bf6a1f0100000000000000008310612567577a184f03e93ff9f4daa797ed6e38ed64bf6a1f010000000000000000838161255d5761255c61396f565b5b0492506040810190505b6d04ee2d6d415b85acef810000000083106125a4576d04ee2d6d415b85acef8100000000838161259a5761259961396f565b5b0492506020810190505b662386f26fc1000083106125d357662386f26fc1000083816125c9576125c861396f565b5b0492506010810190505b6305f5e10083106125fc576305f5e10083816125f2576125f161396f565b5b0492506008810190505b61271083106126215761271083816126175761261661396f565b5b0492506004810190505b60648310612644576064838161263a5761263961396f565b5b0492506002810190505b600a8310612653576001810190505b80915050919050565b600081600001805490509050919050565b60007f780e9d63000000000000000000000000000000000000000000000000000000007bffffffffffffffffffffffffffffffffffffffffffffffffffffffff1916827bffffffffffffffffffffffffffffffffffffffffffffffffffffffff191614806126e057506126df8261292f565b5b9050919050565b6126f2838383612a11565b6127a657600073ffffffffffffffffffffffffffffffffffffffff168373ffffffffffffffffffffffffffffffffffffffff160361276757806040517f7e27328900000000000000000000000000000000000000000000000000000000815260040161275e9190612e1a565b60405180910390fd5b81816040517f177e802f00000000000000000000000000000000000000000000000000000000815260040161279d929190613487565b60405180910390fd5b505050565b60006127b78383612ad2565b612810578260000182908060018154018082558091505060019003906000526020600020016000909190919091505582600001805490508360010160008481526020019081526020016000208190555060019050612815565b600090505b92915050565b6000808360010160008481526020019081526020016000205490506000811461292357600060018261284d919061399e565b9050600060018660000180549050612865919061399e565b90508082146128d45760008660000182815481106128865761288561357f565b5b90600052602060002001549050808760000184815481106128aa576128a961357f565b5b90600052602060002001819055508387600101600083815260200190815260200160002081905550505b856000018054806128e8576128e76139d2565b5b600190038181906000526020600020016000905590558560010160008681526020019081526020016000206000905560019350505050612929565b60009150505b92915050565b60007f80ac58cd000000000000000000000000000000000000000000000000000000007bffffffffffffffffffffffffffffffffffffffffffffffffffffffff1916827bffffffffffffffffffffffffffffffffffffffffffffffffffffffff191614806129fa57507f5b5e139f000000000000000000000000000000000000000000000000000000007bffffffffffffffffffffffffffffffffffffffffffffffffffffffff1916827bffffffffffffffffffffffffffffffffffffffffffffffffffffffff1916145b80612a0a5750612a0982612af5565b5b9050919050565b60008073ffffffffffffffffffffffffffffffffffffffff168373ffffffffffffffffffffffffffffffffffffffff1614158015612ac957508273ffffffffffffffffffffffffffffffffffffffff168473ffffffffffffffffffffffffffffffffffffffff161480612a8a5750612a898484610f81565b5b80612ac857508273ffffffffffffffffffffffffffffffffffffffff16612ab08361119d565b73ffffffffffffffffffffffffffffffffffffffff16145b5b90509392505050565b600080836001016000848152602001908152602001600020541415905092915050565b60007f01ffc9a7000000000000000000000000000000000000000000000000000000007bffffffffffffffffffffffffffffffffffffffffffffffffffffffff1916827bffffffffffffffffffffffffffffffffffffffffffffffffffffffff1916149050919050565b6000604051905090565b600080fd5b600080fd5b60007fffffffff0000000000000000000000000000000000000000000000000000000082169050919050565b612ba881612b73565b8114612bb357600080fd5b50565b600081359050612bc581612b9f565b92915050565b600060208284031215612be157612be0612b69565b5b6000612bef84828501612bb6565b91505092915050565b60008115159050919050565b612c0d81612bf8565b82525050565b6000602082019050612c286000830184612c04565b92915050565b600081519050919050565b600082825260208201905092915050565b60005b83811015612c68578082015181840152602081019050612c4d565b60008484015250505050565b6000601f19601f8301169050919050565b6000612c9082612c2e565b612c9a8185612c39565b9350612caa818560208601612c4a565b612cb381612c74565b840191505092915050565b60006020820190508181036000830152612cd88184612c85565b905092915050565b6000819050919050565b612cf381612ce0565b8114612cfe57600080fd5b50565b600081359050612d1081612cea565b92915050565b600060208284031215612d2c57612d2b612b69565b5b6000612d3a84828501612d01565b91505092915050565b600073ffffffffffffffffffffffffffffffffffffffff82169050919050565b6000612d6e82612d43565b9050919050565b612d7e81612d63565b82525050565b6000602082019050612d996000830184612d75565b92915050565b612da881612d63565b8114612db357600080fd5b50565b600081359050612dc581612d9f565b92915050565b60008060408385031215612de257612de1612b69565b5b6000612df085828601612db6565b9250506020612e0185828601612d01565b9150509250929050565b612e1481612ce0565b82525050565b6000602082019050612e2f6000830184612e0b565b92915050565b600080600060608486031215612e4e57612e4d612b69565b5b6000612e5c86828701612db6565b9350506020612e6d86828701612db6565b9250506040612e7e86828701612d01565b9150509250925092565b6000819050919050565b612e9b81612e88565b8114612ea657600080fd5b50565b600081359050612eb881612e92565b92915050565b600060208284031215612ed457612ed3612b69565b5b6000612ee284828501612ea9565b91505092915050565b612ef481612e88565b82525050565b6000602082019050612f0f6000830184612eeb565b92915050565b60008060408385031215612f2c57612f2b612b69565b5b6000612f3a85828601612ea9565b9250506020612f4b85828601612db6565b9150509250929050565b600060208284031215612f6b57612f6a612b69565b5b6000612f7984828501612db6565b91505092915050565b60008060408385031215612f9957612f98612b69565b5b6000612fa785828601612ea9565b9250506020612fb885828601612d01565b9150509250929050565b612fcb81612bf8565b8114612fd657600080fd5b50565b600081359050612fe881612fc2565b92915050565b6000806040838503121561300557613004612b69565b5b600061301385828601612db6565b925050602061302485828601612fd9565b9150509250929050565b600080fd5b600080fd5b7f4e487b7100000000000000000000000000000000000000000000000000000000600052604160045260246000fd5b61307082612c74565b810181811067ffffffffffffffff8211171561308f5761308e613038565b5b80604052505050565b60006130a2612b5f565b90506130ae8282613067565b919050565b600067ffffffffffffffff8211156130ce576130cd613038565b5b6130d782612c74565b9050602081019050919050565b82818337600083830152505050565b6000613106613101846130b3565b613098565b90508281526020810184848401111561312257613121613033565b5b61312d8482856130e4565b509392505050565b600082601f83011261314a5761314961302e565b5b813561315a8482602086016130f3565b91505092915050565b6000806000806080858703121561317d5761317c612b69565b5b600061318b87828801612db6565b945050602061319c87828801612db6565b93505060406131ad87828801612d01565b925050606085013567ffffffffffffffff8111156131ce576131cd612b6e565b5b6131da87828801613135565b91505092959194509250565b600067ffffffffffffffff82111561320157613200613038565b5b61320a82612c74565b9050602081019050919050565b600061322a613225846131e6565b613098565b90508281526020810184848401111561324657613245613033565b5b6132518482856130e4565b509392505050565b600082601f83011261326e5761326d61302e565b5b813561327e848260208601613217565b91505092915050565b60006020828403121561329d5761329c612b69565b5b600082013567ffffffffffffffff8111156132bb576132ba612b6e565b5b6132c784828501613259565b91505092915050565b600081519050919050565b600082825260208201905092915050565b6000819050602082019050919050565b61330581612ce0565b82525050565b600061331783836132fc565b60208301905092915050565b6000602082019050919050565b600061333b826132d0565b61334581856132db565b9350613350836132ec565b8060005b83811015613381578151613368888261330b565b975061337383613323565b925050600181019050613354565b5085935050505092915050565b600060208201905081810360008301526133a88184613330565b905092915050565b600080604083850312156133c7576133c6612b69565b5b60006133d585828601612db6565b92505060206133e685828601612db6565b9150509250929050565b7f4e487b7100000000000000000000000000000000000000000000000000000000600052602260045260246000fd5b6000600282049050600182168061343757607f821691505b60208210810361344a576134496133f0565b5b50919050565b60006060820190506134656000830186612d75565b6134726020830185612e0b565b61347f6040830184612d75565b949350505050565b600060408201905061349c6000830185612d75565b6134a96020830184612e0b565b9392505050565b7f43616c6c6572206973206e6f742061206d696e74657200000000000000000000600082015250565b60006134e6601683612c39565b91506134f1826134b0565b602082019050919050565b60006020820190508181036000830152613515816134d9565b9050919050565b7f4e487b7100000000000000000000000000000000000000000000000000000000600052601160045260246000fd5b600061355682612ce0565b915061356183612ce0565b92508282019050808211156135795761357861351c565b5b92915050565b7f4e487b7100000000000000000000000000000000000000000000000000000000600052603260045260246000fd5b60008190508160005260206000209050919050565b60006020601f8301049050919050565b600082821b905092915050565b6000600883026136107fffffffffffffffffffffffffffffffffffffffffffffffffffffffffffffffff826135d3565b61361a86836135d3565b95508019841693508086168417925050509392505050565b6000819050919050565b600061365761365261364d84612ce0565b613632565b612ce0565b9050919050565b6000819050919050565b6136718361363c565b61368561367d8261365e565b8484546135e0565b825550505050565b600090565b61369a61368d565b6136a5818484613668565b505050565b5b818110156136c9576136be600082613692565b6001810190506136ab565b5050565b601f82111561370e576136df816135ae565b6136e8846135c3565b810160208510156136f7578190505b61370b613703856135c3565b8301826136aa565b50505b505050565b600082821c905092915050565b600061373160001984600802613713565b1980831691505092915050565b600061374a8383613720565b9150826002028217905092915050565b61376382612c2e565b67ffffffffffffffff81111561377c5761377b613038565b5b613786825461341f565b6137918282856136cd565b600060209050601f8311600181146137c457600084156137b2578287015190505b6137bc858261373e565b865550613824565b601f1984166137d2866135ae565b60005b828110156137fa578489015182556001820191506020850194506020810190506137d5565b868310156138175784890151613813601f891682613720565b8355505b6001600288020188555050505b505050505050565b600081905092915050565b600061384282612c2e565b61384c818561382c565b935061385c818560208601612c4a565b80840191505092915050565b60006138748285613837565b91506138808284613837565b91508190509392505050565b600081519050919050565b600082825260208201905092915050565b60006138b38261388c565b6138bd8185613897565b93506138cd818560208601612c4a565b6138d681612c74565b840191505092915050565b60006080820190506138f66000830187612d75565b6139036020830186612d75565b6139106040830185612e0b565b818103606083015261392281846138a8565b905095945050505050565b60008151905061393c81612b9f565b92915050565b60006020828403121561395857613957612b69565b5b60006139668482850161392d565b91505092915050565b7f4e487b7100000000000000000000000000000000000000000000000000000000600052601260045260246000fd5b60006139a982612ce0565b91506139b483612ce0565b92508282039050818111156139cc576139cb61351c565b5b92915050565b7f4e487b7100000000000000000000000000000000000000000000000000000000600052603160045260246000fd5b6000604082019050613a166000830185612d75565b613a236020830184612eeb565b939250505056fea264697066735822122063f0b9d9ee1a12a9146e544912adc3c75859e07070afcaf995a22c74f7a3b04e64736f6c63430008180033",
  "linkReferences": {},
  "deployedLinkReferences": {}
}